{
  "address": "0x491e021AA9E0fed51585707128c3bBe7AbE02C80",
  "abi": [
    {
      "inputs": [],
      "stateMutability": "nonpayable",
      "type": "constructor"
    },
    {
      "anonymous": false,
      "inputs": [
        {
          "indexed": true,
          "internalType": "address",
          "name": "owner",
          "type": "address"
        },
        {
          "indexed": true,
          "internalType": "address",
          "name": "approved",
          "type": "address"
        },
        {
          "indexed": true,
          "internalType": "uint256",
          "name": "tokenId",
          "type": "uint256"
        }
      ],
      "name": "Approval",
      "type": "event"
    },
    {
      "anonymous": false,
      "inputs": [
        {
          "indexed": true,
          "internalType": "address",
          "name": "owner",
          "type": "address"
        },
        {
          "indexed": true,
          "internalType": "address",
          "name": "operator",
          "type": "address"
        },
        {
          "indexed": false,
          "internalType": "bool",
          "name": "approved",
          "type": "bool"
        }
      ],
      "name": "ApprovalForAll",
      "type": "event"
    },
    {
      "anonymous": false,
      "inputs": [
        {
          "indexed": false,
          "internalType": "uint256",
          "name": "_fromTokenId",
          "type": "uint256"
        },
        {
          "indexed": false,
          "internalType": "uint256",
          "name": "_toTokenId",
          "type": "uint256"
        }
      ],
      "name": "BatchMetadataUpdate",
      "type": "event"
    },
    {
      "anonymous": false,
      "inputs": [
        {
          "indexed": false,
          "internalType": "uint256",
          "name": "_tokenId",
          "type": "uint256"
        }
      ],
      "name": "MetadataUpdate",
      "type": "event"
    },
    {
      "anonymous": false,
      "inputs": [
        {
          "indexed": true,
          "internalType": "address",
          "name": "previousOwner",
          "type": "address"
        },
        {
          "indexed": true,
          "internalType": "address",
          "name": "newOwner",
          "type": "address"
        }
      ],
      "name": "OwnershipTransferred",
      "type": "event"
    },
    {
      "anonymous": false,
      "inputs": [
        {
          "indexed": true,
          "internalType": "address",
          "name": "from",
          "type": "address"
        },
        {
          "indexed": true,
          "internalType": "address",
          "name": "to",
          "type": "address"
        },
        {
          "indexed": true,
          "internalType": "uint256",
          "name": "tokenId",
          "type": "uint256"
        }
      ],
      "name": "Transfer",
      "type": "event"
    },
    {
      "inputs": [
        {
          "internalType": "address",
          "name": "to",
          "type": "address"
        },
        {
          "internalType": "uint256",
          "name": "tokenId",
          "type": "uint256"
        }
      ],
      "name": "approve",
      "outputs": [],
      "stateMutability": "nonpayable",
      "type": "function"
    },
    {
      "inputs": [
        {
          "internalType": "address",
          "name": "owner",
          "type": "address"
        }
      ],
      "name": "balanceOf",
      "outputs": [
        {
          "internalType": "uint256",
          "name": "",
          "type": "uint256"
        }
      ],
      "stateMutability": "view",
      "type": "function"
    },
    {
      "inputs": [
        {
          "internalType": "uint256",
          "name": "tokenId",
          "type": "uint256"
        }
      ],
      "name": "getApproved",
      "outputs": [
        {
          "internalType": "address",
          "name": "",
          "type": "address"
        }
      ],
      "stateMutability": "view",
      "type": "function"
    },
    {
      "inputs": [
        {
          "internalType": "uint256",
          "name": "tokenId",
          "type": "uint256"
        }
      ],
      "name": "getEncryptedData",
      "outputs": [
        {
          "components": [
            {
              "internalType": "bytes",
              "name": "iv",
              "type": "bytes"
            },
            {
              "internalType": "bytes",
              "name": "ephemPublicKey",
              "type": "bytes"
            },
            {
              "internalType": "bytes",
              "name": "cipherText",
              "type": "bytes"
            },
            {
              "internalType": "bytes",
              "name": "mac",
              "type": "bytes"
            }
          ],
          "internalType": "struct EncryptedData",
          "name": "",
          "type": "tuple"
        }
      ],
      "stateMutability": "view",
      "type": "function"
    },
    {
      "inputs": [
        {
          "internalType": "uint256",
          "name": "tokenId",
          "type": "uint256"
        }
      ],
      "name": "getHashData",
      "outputs": [
        {
          "internalType": "bytes",
          "name": "",
          "type": "bytes"
        }
      ],
      "stateMutability": "view",
      "type": "function"
    },
    {
      "inputs": [
        {
          "internalType": "address",
          "name": "owner",
          "type": "address"
        },
        {
          "internalType": "address",
          "name": "operator",
          "type": "address"
        }
      ],
      "name": "isApprovedForAll",
      "outputs": [
        {
          "internalType": "bool",
          "name": "",
          "type": "bool"
        }
      ],
      "stateMutability": "view",
      "type": "function"
    },
    {
      "inputs": [],
      "name": "name",
      "outputs": [
        {
          "internalType": "string",
          "name": "",
          "type": "string"
        }
      ],
      "stateMutability": "view",
      "type": "function"
    },
    {
      "inputs": [],
      "name": "owner",
      "outputs": [
        {
          "internalType": "address",
          "name": "",
          "type": "address"
        }
      ],
      "stateMutability": "view",
      "type": "function"
    },
    {
      "inputs": [
        {
          "internalType": "uint256",
          "name": "tokenId",
          "type": "uint256"
        }
      ],
      "name": "ownerOf",
      "outputs": [
        {
          "internalType": "address",
          "name": "",
          "type": "address"
        }
      ],
      "stateMutability": "view",
      "type": "function"
    },
    {
      "inputs": [],
      "name": "renounceOwnership",
      "outputs": [],
      "stateMutability": "nonpayable",
      "type": "function"
    },
    {
      "inputs": [
        {
          "internalType": "address",
          "name": "to",
          "type": "address"
        },
        {
          "internalType": "bytes",
          "name": "hashData",
          "type": "bytes"
        },
        {
          "components": [
            {
              "internalType": "bytes",
              "name": "iv",
              "type": "bytes"
            },
            {
              "internalType": "bytes",
              "name": "ephemPublicKey",
              "type": "bytes"
            },
            {
              "internalType": "bytes",
              "name": "cipherText",
              "type": "bytes"
            },
            {
              "internalType": "bytes",
              "name": "mac",
              "type": "bytes"
            }
          ],
          "internalType": "struct EncryptedData",
          "name": "encryptedExpiryDate",
          "type": "tuple"
        }
      ],
      "name": "safeMint",
      "outputs": [],
      "stateMutability": "nonpayable",
      "type": "function"
    },
    {
      "inputs": [
        {
          "internalType": "address",
          "name": "from",
          "type": "address"
        },
        {
          "internalType": "address",
          "name": "to",
          "type": "address"
        },
        {
          "internalType": "uint256",
          "name": "tokenId",
          "type": "uint256"
        }
      ],
      "name": "safeTransferFrom",
      "outputs": [],
      "stateMutability": "nonpayable",
      "type": "function"
    },
    {
      "inputs": [
        {
          "internalType": "address",
          "name": "from",
          "type": "address"
        },
        {
          "internalType": "address",
          "name": "to",
          "type": "address"
        },
        {
          "internalType": "uint256",
          "name": "tokenId",
          "type": "uint256"
        },
        {
          "internalType": "bytes",
          "name": "data",
          "type": "bytes"
        }
      ],
      "name": "safeTransferFrom",
      "outputs": [],
      "stateMutability": "nonpayable",
      "type": "function"
    },
    {
      "inputs": [
        {
          "internalType": "address",
          "name": "operator",
          "type": "address"
        },
        {
          "internalType": "bool",
          "name": "approved",
          "type": "bool"
        }
      ],
      "name": "setApprovalForAll",
      "outputs": [],
      "stateMutability": "nonpayable",
      "type": "function"
    },
    {
      "inputs": [
        {
          "internalType": "bytes4",
          "name": "interfaceId",
          "type": "bytes4"
        }
      ],
      "name": "supportsInterface",
      "outputs": [
        {
          "internalType": "bool",
          "name": "",
          "type": "bool"
        }
      ],
      "stateMutability": "view",
      "type": "function"
    },
    {
      "inputs": [],
      "name": "symbol",
      "outputs": [
        {
          "internalType": "string",
          "name": "",
          "type": "string"
        }
      ],
      "stateMutability": "view",
      "type": "function"
    },
    {
      "inputs": [
        {
          "internalType": "uint256",
          "name": "tokenId",
          "type": "uint256"
        }
      ],
      "name": "tokenURI",
      "outputs": [
        {
          "internalType": "string",
          "name": "",
          "type": "string"
        }
      ],
      "stateMutability": "view",
      "type": "function"
    },
    {
      "inputs": [
        {
          "internalType": "address",
          "name": "from",
          "type": "address"
        },
        {
          "internalType": "address",
          "name": "to",
          "type": "address"
        },
        {
          "internalType": "uint256",
          "name": "tokenId",
          "type": "uint256"
        }
      ],
      "name": "transferFrom",
      "outputs": [],
      "stateMutability": "nonpayable",
      "type": "function"
    },
    {
      "inputs": [
        {
          "internalType": "address",
          "name": "newOwner",
          "type": "address"
        }
      ],
      "name": "transferOwnership",
      "outputs": [],
      "stateMutability": "nonpayable",
      "type": "function"
    }
  ],
  "transactionHash": "0x2a62f0981f8a2a75d7ad2fc5ad4e6f4ffeae761c087efd8e9bbb775d07edadb8",
  "args": [],
  "numDeployments": 1,
  "solcInputHash": "189d06701b153b8fb5d9b14cdd33ea22",
  "bytecode": "0x60806040523480156200001157600080fd5b50604080518082018252600e81526d25b2bcb5b7ad25a829a12a2fbb1960911b60208083019182528351808501909452600784526625a9a12a2fbb1960c91b9084015281519192916200006791600091620000f6565b5080516200007d906001906020840190620000f6565b5050506200009a62000094620000a060201b60201c565b620000a4565b620001e3565b3390565b600780546001600160a01b038381166001600160a01b0319831681179093556040519116919082907f8be0079c531659141344cd1fd0a4f28419497f9722a3daafe3b4186f6b6457e090600090a35050565b8280546200010490620001b2565b90600052602060002090601f01602090048101928262000128576000855562000173565b82601f106200014357805160ff191683800117855562000173565b8280016001018555821562000173579182015b828111156200017357825182559160200191906001019062000156565b506200018192915062000185565b5090565b5b8082111562000181576000815560010162000186565b634e487b7160e01b600052602260045260246000fd5b600281046001821680620001c757607f821691505b60208210811415620001dd57620001dd6200019c565b50919050565b611f9c80620001f36000396000f3fe608060405234801561001057600080fd5b50600436106100f15760003560e01c806301ffc9a7146100f657806306fdde031461011f578063081812fc14610134578063095ea7b31461015457806323b872dd146101695780633ec0b0bc1461017c57806342842e0e1461019c5780636352211e146101af57806370a08231146101c2578063715018a6146101e25780638da5cb5b146101ea57806395d89b41146101f2578063a22cb465146101fa578063aceaf4a01461020d578063b88d4fde14610220578063c87b56dd14610233578063ccdce5a714610246578063e985e9c514610259578063f2fde38b1461026c575b600080fd5b6101096101043660046113fd565b61027f565b6040516101169190611428565b60405180910390f35b610127610290565b60405161011691906114a0565b6101476101423660046114c2565b610322565b60405161011691906114fd565b61016761016236600461151f565b610349565b005b61016761017736600461155c565b6103d8565b61018f61018a3660046114c2565b610409565b604051610116919061161b565b6101676101aa36600461155c565b61069e565b6101476101bd3660046114c2565b6106b9565b6101d56101d036600461162c565b6106ed565b6040516101169190611653565b610167610731565b610147610745565b610127610754565b610167610208366004611674565b610763565b61012761021b3660046114c2565b610772565b61016761022e36600461179a565b610814565b6101276102413660046114c2565b61084c565b610167610254366004611884565b610857565b610109610267366004611901565b610973565b61016761027a36600461162c565b6109a1565b600061028a826109db565b92915050565b60606000805461029f9061194a565b80601f01602080910402602001604051908101604052809291908181526020018280546102cb9061194a565b80156103185780601f106102ed57610100808354040283529160200191610318565b820191906000526020600020905b8154815290600101906020018083116102fb57829003601f168201915b5050505050905090565b600061032d82610a00565b506000908152600460205260409020546001600160a01b031690565b6000610354826106b9565b9050806001600160a01b0316836001600160a01b031614156103915760405162461bcd60e51b8152600401610388906119b2565b60405180910390fd5b336001600160a01b03821614806103ad57506103ad8133610973565b6103c95760405162461bcd60e51b815260040161038890611a1c565b6103d38383610a25565b505050565b6103e23382610a93565b6103fe5760405162461bcd60e51b815260040161038890611a76565b6103d3838383610af2565b6104346040518060800160405280606081526020016060815260200160608152602001606081525090565b6000828152600960205260409081902081516080810190925260010180548290829061045f9061194a565b80601f016020809104026020016040519081016040528092919081815260200182805461048b9061194a565b80156104d85780601f106104ad576101008083540402835291602001916104d8565b820191906000526020600020905b8154815290600101906020018083116104bb57829003601f168201915b505050505081526020016001820180546104f19061194a565b80601f016020809104026020016040519081016040528092919081815260200182805461051d9061194a565b801561056a5780601f1061053f5761010080835404028352916020019161056a565b820191906000526020600020905b81548152906001019060200180831161054d57829003601f168201915b505050505081526020016002820180546105839061194a565b80601f01602080910402602001604051908101604052809291908181526020018280546105af9061194a565b80156105fc5780601f106105d1576101008083540402835291602001916105fc565b820191906000526020600020905b8154815290600101906020018083116105df57829003601f168201915b505050505081526020016003820180546106159061194a565b80601f01602080910402602001604051908101604052809291908181526020018280546106419061194a565b801561068e5780601f106106635761010080835404028352916020019161068e565b820191906000526020600020905b81548152906001019060200180831161067157829003601f168201915b5050505050815250509050919050565b6103d383838360405180602001604052806000815250610814565b6000806106c583610c15565b90506001600160a01b03811661028a5760405162461bcd60e51b815260040161038890611ab8565b60006001600160a01b0382166107155760405162461bcd60e51b815260040161038890611b0e565b506001600160a01b031660009081526003602052604090205490565b610739610c30565b6107436000610c5f565b565b6007546001600160a01b031690565b60606001805461029f9061194a565b61076e338383610cb1565b5050565b600081815260096020526040902080546060919061078f9061194a565b80601f01602080910402602001604051908101604052809291908181526020018280546107bb9061194a565b80156108085780601f106107dd57610100808354040283529160200191610808565b820191906000526020600020905b8154815290600101906020018083116107eb57829003601f168201915b50505050509050919050565b61081e3383610a93565b61083a5760405162461bcd60e51b815260040161038890611a76565b61084684848484610d54565b50505050565b606061028a82610d87565b61085f610c30565b600061086a60085490565b905061087a600880546001019055565b6040805160606020601f870181900402820181018352918101858152909182919087908790819085018382808284376000920191909152505050908252506020016108c484611bf7565b905260008281526009602090815260409091208251805191926108ec92849290910190611342565b50602082810151805180519192600185019261090b9284920190611342565b5060208281015180516109249260018501920190611342565b5060408201518051610940916002840191602090910190611342565b506060820151805161095c916003840191602090910190611342565b50505090505061096c8582610e90565b5050505050565b6001600160a01b03918216600090815260056020908152604080832093909416825291909152205460ff1690565b6109a9610c30565b6001600160a01b0381166109cf5760405162461bcd60e51b815260040161038890611c46565b6109d881610c5f565b50565b60006001600160e01b03198216632483248360e11b148061028a575061028a82610eaa565b610a0981610efa565b6109d85760405162461bcd60e51b815260040161038890611ab8565b600081815260046020526040902080546001600160a01b0319166001600160a01b0384169081179091558190610a5a826106b9565b6001600160a01b03167f8c5be1e5ebec7d5bd14f71427d1e84f3dd0314c0f7b2291e5b200ac8c7c3b92560405160405180910390a45050565b600080610a9f836106b9565b9050806001600160a01b0316846001600160a01b03161480610ac65750610ac68185610973565b80610aea5750836001600160a01b0316610adf84610322565b6001600160a01b0316145b949350505050565b826001600160a01b0316610b05826106b9565b6001600160a01b031614610b2b5760405162461bcd60e51b815260040161038890611c98565b6001600160a01b038216610b515760405162461bcd60e51b815260040161038890611ce9565b610b5e8383836001610f17565b826001600160a01b0316610b71826106b9565b6001600160a01b031614610b975760405162461bcd60e51b815260040161038890611c98565b600081815260046020908152604080832080546001600160a01b03199081169091556001600160a01b038781168086526003855283862080546000190190559087168086528386208054600101905586865260029094528285208054909216841790915590518493600080516020611f4783398151915291a4505050565b6000908152600260205260409020546001600160a01b031690565b33610c39610745565b6001600160a01b0316146107435760405162461bcd60e51b815260040161038890611d2b565b600780546001600160a01b038381166001600160a01b0319831681179093556040519116919082907f8be0079c531659141344cd1fd0a4f28419497f9722a3daafe3b4186f6b6457e090600090a35050565b816001600160a01b0316836001600160a01b03161415610ce35760405162461bcd60e51b815260040161038890611d6b565b6001600160a01b0383811660008181526005602090815260408083209487168084529490915290819020805460ff1916851515179055517f17307eab39ab6107e8899845ad3d59bd9653f200f220920489ca2b5937696c3190610d47908590611428565b60405180910390a3505050565b610d5f848484610af2565b610d6b84848484610f43565b6108465760405162461bcd60e51b815260040161038890611dca565b6060610d9282610a00565b60008281526006602052604081208054610dab9061194a565b80601f0160208091040260200160405190810160405280929190818152602001828054610dd79061194a565b8015610e245780601f10610df957610100808354040283529160200191610e24565b820191906000526020600020905b815481529060010190602001808311610e0757829003601f168201915b505050505090506000610e4260408051602081019091526000815290565b9050805160001415610e55575092915050565b815115610e87578082604051602001610e6f929190611dfc565b60405160208183030381529060405292505050919050565b610aea84611050565b61076e8282604051806020016040528060008152506110c4565b60006001600160e01b031982166380ac58cd60e01b1480610edb57506001600160e01b03198216635b5e139f60e01b145b8061028a57506301ffc9a760e01b6001600160e01b031983161461028a565b600080610f0683610c15565b6001600160a01b0316141592915050565b6001600160a01b03841615610f3e5760405162461bcd60e51b815260040161038890611e41565b610846565b60006001600160a01b0384163b1561104557604051630a85bd0160e11b81526001600160a01b0385169063150b7a0290610f87903390899088908890600401611e51565b602060405180830381600087803b158015610fa157600080fd5b505af1925050508015610fd1575060408051601f3d908101601f19168201909252610fce91810190611ea0565b60015b61102b573d808015610fff576040519150601f19603f3d011682016040523d82523d6000602084013e611004565b606091505b5080516110235760405162461bcd60e51b815260040161038890611dca565b805181602001fd5b6001600160e01b031916630a85bd0160e11b149050610aea565b506001949350505050565b606061105b82610a00565b600061107260408051602081019091526000815290565b9050600081511161109257604051806020016040528060008152506110bd565b8061109c846110f7565b6040516020016110ad929190611dfc565b6040516020818303038152906040525b9392505050565b6110ce8383611193565b6110db6000848484610f43565b6103d35760405162461bcd60e51b815260040161038890611dca565b606060006111048361126c565b60010190506000816001600160401b03811115611123576111236116a7565b6040519080825280601f01601f19166020018201604052801561114d576020820181803683370190505b5090508181016020015b600019016f181899199a1a9b1b9c1cb0b131b232b360811b600a86061a8153600a85049450846111865761118b565b611157565b509392505050565b6001600160a01b0382166111b95760405162461bcd60e51b815260040161038890611ef3565b6111c281610efa565b156111df5760405162461bcd60e51b815260040161038890611f36565b6111ed600083836001610f17565b6111f681610efa565b156112135760405162461bcd60e51b815260040161038890611f36565b6001600160a01b038216600081815260036020908152604080832080546001019055848352600290915280822080546001600160a01b031916841790555183929190600080516020611f47833981519152908290a45050565b60008072184f03e93ff9f4daa797ed6e38ed64bf6a1f0160401b83106112ab5772184f03e93ff9f4daa797ed6e38ed64bf6a1f0160401b830492506040015b6904ee2d6d415b85acef8160201b83106112d5576904ee2d6d415b85acef8160201b830492506020015b662386f26fc1000083106112f357662386f26fc10000830492506010015b6305f5e100831061130b576305f5e100830492506008015b612710831061131f57612710830492506004015b60648310611331576064830492506002015b600a831061028a5760010192915050565b82805461134e9061194a565b90600052602060002090601f01602090048101928261137057600085556113b6565b82601f1061138957805160ff19168380011785556113b6565b828001600101855582156113b6579182015b828111156113b657825182559160200191906001019061139b565b506113c29291506113c6565b5090565b5b808211156113c257600081556001016113c7565b6001600160e01b031981165b81146109d857600080fd5b803561028a816113db565b60006020828403121561141257611412600080fd5b6000610aea84846113f2565b8015155b82525050565b6020810161028a828461141e565b60005b83811015611451578181015183820152602001611439565b838111156108465750506000910152565b601f01601f191690565b6000611476825190565b80845260208401935061148d818560208601611436565b61149681611462565b9093019392505050565b602080825281016110bd818461146c565b806113e7565b803561028a816114b1565b6000602082840312156114d7576114d7600080fd5b6000610aea84846114b7565b60006001600160a01b03821661028a565b611422816114e3565b6020810161028a82846114f4565b6113e7816114e3565b803561028a8161150b565b6000806040838503121561153557611535600080fd5b60006115418585611514565b9250506020611552858286016114b7565b9150509250929050565b60008060006060848603121561157457611574600080fd5b60006115808686611514565b935050602061159186828701611514565b92505060406115a2868287016114b7565b9150509250925092565b80516080808452600091908401906115c4828261146c565b915050602083015184820360208601526115de828261146c565b915050604083015184820360408601526115f8828261146c565b91505060608301518482036060860152611612828261146c565b95945050505050565b602080825281016110bd81846115ac565b60006020828403121561164157611641600080fd5b6000610aea8484611514565b80611422565b6020810161028a828461164d565b8015156113e7565b803561028a81611661565b6000806040838503121561168a5761168a600080fd5b60006116968585611514565b925050602061155285828601611669565b634e487b7160e01b600052604160045260246000fd5b6116c682611462565b81018181106001600160401b03821117156116e3576116e36116a7565b6040525050565b60006116f560405190565b905061170182826116bd565b919050565b60006001600160401b0382111561171f5761171f6116a7565b61172882611462565b60200192915050565b82818337506000910152565b600061175061174b84611706565b6116ea565b90508281526020810184848401111561176b5761176b600080fd5b61118b848285611731565b600082601f83011261178a5761178a600080fd5b8135610aea84826020860161173d565b600080600080608085870312156117b3576117b3600080fd5b60006117bf8787611514565b94505060206117d087828801611514565b93505060406117e1878288016114b7565b92505060608501356001600160401b0381111561180057611800600080fd5b61180c87828801611776565b91505092959194509250565b60008083601f84011261182d5761182d600080fd5b5081356001600160401b0381111561184757611847600080fd5b60208301915083600182028301111561186257611862600080fd5b9250929050565b60006080828403121561187e5761187e600080fd5b50919050565b6000806000806060858703121561189d5761189d600080fd5b60006118a98787611514565b94505060208501356001600160401b038111156118c8576118c8600080fd5b6118d487828801611818565b935093505060408501356001600160401b038111156118f5576118f5600080fd5b61180c87828801611869565b6000806040838503121561191757611917600080fd5b60006119238585611514565b925050602061155285828601611514565b634e487b7160e01b600052602260045260246000fd5b60028104600182168061195e57607f821691505b6020821081141561187e5761187e611934565b602181526000602082017f4552433732313a20617070726f76616c20746f2063757272656e74206f776e658152603960f91b602082015291505b5060400190565b6020808252810161028a81611971565b603d81526000602082017f4552433732313a20617070726f76652063616c6c6572206973206e6f7420746f81527f6b656e206f776e6572206f7220617070726f76656420666f7220616c6c000000602082015291506119ab565b6020808252810161028a816119c2565b602d81526000602082017f4552433732313a2063616c6c6572206973206e6f7420746f6b656e206f776e6581526c1c881bdc88185c1c1c9bdd9959609a1b602082015291506119ab565b6020808252810161028a81611a2c565b6018815260006020820177115490cdcc8c4e881a5b9d985b1a59081d1bdad95b88125160421b815291505b5060200190565b6020808252810161028a81611a86565b602981526000602082017f4552433732313a2061646472657373207a65726f206973206e6f7420612076618152683634b21037bbb732b960b91b602082015291506119ab565b6020808252810161028a81611ac8565b600060808284031215611b3357611b33600080fd5b611b3d60806116ea565b905081356001600160401b03811115611b5857611b58600080fd5b611b6484828501611776565b82525060208201356001600160401b03811115611b8357611b83600080fd5b611b8f84828501611776565b60208301525060408201356001600160401b03811115611bb157611bb1600080fd5b611bbd84828501611776565b60408301525060608201356001600160401b03811115611bdf57611bdf600080fd5b611beb84828501611776565b60608301525092915050565b600061028a3683611b1e565b602681526000602082017f4f776e61626c653a206e6577206f776e657220697320746865207a65726f206181526564647265737360d01b602082015291506119ab565b6020808252810161028a81611c03565b602581526000602082017f4552433732313a207472616e736665722066726f6d20696e636f72726563742081526437bbb732b960d91b602082015291506119ab565b6020808252810161028a81611c56565b602481526000602082017f4552433732313a207472616e7366657220746f20746865207a65726f206164648152637265737360e01b602082015291506119ab565b6020808252810161028a81611ca8565b60208082527f4f776e61626c653a2063616c6c6572206973206e6f7420746865206f776e657291019081526000611ab1565b6020808252810161028a81611cf9565b601981526000602082017822a9219b99189d1030b8383937bb32903a379031b0b63632b960391b81529150611ab1565b6020808252810161028a81611d3b565b603281526000602082017f4552433732313a207472616e7366657220746f206e6f6e20455243373231526581527131b2b4bb32b91034b6b83632b6b2b73a32b960711b602082015291506119ab565b6020808252810161028a81611d7b565b6000611de4825190565b611df2818560208601611436565b9290920192915050565b6000611e088285611dda565b9150610aea8284611dda565b6016815260006020820175546f6b656e206e6f74207472616e7366657261626c6560501b81529150611ab1565b6020808252810161028a81611e14565b60808101611e5f82876114f4565b611e6c60208301866114f4565b611e79604083018561164d565b8181036060830152611e8b818461146c565b9695505050505050565b805161028a816113db565b600060208284031215611eb557611eb5600080fd5b6000610aea8484611e95565b60208082527f4552433732313a206d696e7420746f20746865207a65726f206164647265737391019081526000611ab1565b6020808252810161028a81611ec1565b601c81526000602082017b115490cdcc8c4e881d1bdad95b88185b1c9958591e481b5a5b9d195960221b81529150611ab1565b6020808252810161028a81611f0356feddf252ad1be2c89b69c2b068fc378daa952ba7f163c4a11628f55a4df523b3efa26469706673582212205e20cf1db35d428091047495f68fcea9ef28924affaca940d2cd74f0ac8bf54e64736f6c63430008080033",
  "devdoc": {
    "kind": "dev",
    "methods": {
      "approve(address,uint256)": {
        "details": "See {IERC721-approve}."
      },
      "balanceOf(address)": {
        "details": "See {IERC721-balanceOf}."
      },
      "getApproved(uint256)": {
        "details": "See {IERC721-getApproved}."
      },
      "isApprovedForAll(address,address)": {
        "details": "See {IERC721-isApprovedForAll}."
      },
      "name()": {
        "details": "See {IERC721Metadata-name}."
      },
      "owner()": {
        "details": "Returns the address of the current owner."
      },
      "ownerOf(uint256)": {
        "details": "See {IERC721-ownerOf}."
      },
      "renounceOwnership()": {
        "details": "Leaves the contract without owner. It will not be possible to call `onlyOwner` functions. Can only be called by the current owner. NOTE: Renouncing ownership will leave the contract without an owner, thereby disabling any functionality that is only available to the owner."
      },
      "safeTransferFrom(address,address,uint256)": {
        "details": "See {IERC721-safeTransferFrom}."
      },
      "safeTransferFrom(address,address,uint256,bytes)": {
        "details": "See {IERC721-safeTransferFrom}."
      },
      "setApprovalForAll(address,bool)": {
        "details": "See {IERC721-setApprovalForAll}."
      },
      "symbol()": {
        "details": "See {IERC721Metadata-symbol}."
      },
      "transferFrom(address,address,uint256)": {
        "details": "See {IERC721-transferFrom}."
      },
      "transferOwnership(address)": {
        "details": "Transfers ownership of the contract to a new account (`newOwner`). Can only be called by the current owner."
      }
    },
    "version": 1
  },
  "userdoc": {
    "kind": "user",
    "methods": {},
    "version": 1
  },
  "storageLayout": {
    "storage": [
      {
        "astId": 4293,
        "contract": "contracts/KeykoZKPSBT_v2.sol:KeykoZKPSBT_v2",
        "label": "_name",
        "offset": 0,
        "slot": "0",
        "type": "t_string_storage"
      },
      {
        "astId": 4295,
        "contract": "contracts/KeykoZKPSBT_v2.sol:KeykoZKPSBT_v2",
        "label": "_symbol",
        "offset": 0,
        "slot": "1",
        "type": "t_string_storage"
      },
      {
        "astId": 4299,
        "contract": "contracts/KeykoZKPSBT_v2.sol:KeykoZKPSBT_v2",
        "label": "_owners",
        "offset": 0,
        "slot": "2",
        "type": "t_mapping(t_uint256,t_address)"
      },
      {
        "astId": 4303,
        "contract": "contracts/KeykoZKPSBT_v2.sol:KeykoZKPSBT_v2",
        "label": "_balances",
        "offset": 0,
        "slot": "3",
        "type": "t_mapping(t_address,t_uint256)"
      },
      {
        "astId": 4307,
        "contract": "contracts/KeykoZKPSBT_v2.sol:KeykoZKPSBT_v2",
        "label": "_tokenApprovals",
        "offset": 0,
        "slot": "4",
        "type": "t_mapping(t_uint256,t_address)"
      },
      {
        "astId": 4313,
        "contract": "contracts/KeykoZKPSBT_v2.sol:KeykoZKPSBT_v2",
        "label": "_operatorApprovals",
        "offset": 0,
        "slot": "5",
        "type": "t_mapping(t_address,t_mapping(t_address,t_bool))"
      },
      {
        "astId": 5344,
        "contract": "contracts/KeykoZKPSBT_v2.sol:KeykoZKPSBT_v2",
        "label": "_tokenURIs",
        "offset": 0,
        "slot": "6",
        "type": "t_mapping(t_uint256,t_string_storage)"
      },
      {
        "astId": 3554,
        "contract": "contracts/KeykoZKPSBT_v2.sol:KeykoZKPSBT_v2",
        "label": "_owner",
        "offset": 0,
        "slot": "7",
        "type": "t_address"
      },
      {
        "astId": 8405,
        "contract": "contracts/KeykoZKPSBT_v2.sol:KeykoZKPSBT_v2",
        "label": "_tokenIdCounter",
        "offset": 0,
        "slot": "8",
        "type": "t_struct(Counter)5869_storage"
      },
      {
        "astId": 8410,
        "contract": "contracts/KeykoZKPSBT_v2.sol:KeykoZKPSBT_v2",
        "label": "idToSBTData",
        "offset": 0,
        "slot": "9",
        "type": "t_mapping(t_uint256,t_struct(SBTData)8581_storage)"
      }
    ],
    "types": {
      "t_address": {
        "encoding": "inplace",
        "label": "address",
        "numberOfBytes": "20"
      },
      "t_bool": {
        "encoding": "inplace",
        "label": "bool",
        "numberOfBytes": "1"
      },
      "t_bytes_storage": {
        "encoding": "bytes",
        "label": "bytes",
        "numberOfBytes": "32"
      },
      "t_mapping(t_address,t_bool)": {
        "encoding": "mapping",
        "key": "t_address",
        "label": "mapping(address => bool)",
        "numberOfBytes": "32",
        "value": "t_bool"
      },
      "t_mapping(t_address,t_mapping(t_address,t_bool))": {
        "encoding": "mapping",
        "key": "t_address",
        "label": "mapping(address => mapping(address => bool))",
        "numberOfBytes": "32",
        "value": "t_mapping(t_address,t_bool)"
      },
      "t_mapping(t_address,t_uint256)": {
        "encoding": "mapping",
        "key": "t_address",
        "label": "mapping(address => uint256)",
        "numberOfBytes": "32",
        "value": "t_uint256"
      },
      "t_mapping(t_uint256,t_address)": {
        "encoding": "mapping",
        "key": "t_uint256",
        "label": "mapping(uint256 => address)",
        "numberOfBytes": "32",
        "value": "t_address"
      },
      "t_mapping(t_uint256,t_string_storage)": {
        "encoding": "mapping",
        "key": "t_uint256",
        "label": "mapping(uint256 => string)",
        "numberOfBytes": "32",
        "value": "t_string_storage"
      },
      "t_mapping(t_uint256,t_struct(SBTData)8581_storage)": {
        "encoding": "mapping",
        "key": "t_uint256",
        "label": "mapping(uint256 => struct SBTData)",
        "numberOfBytes": "32",
        "value": "t_struct(SBTData)8581_storage"
      },
      "t_string_storage": {
        "encoding": "bytes",
        "label": "string",
        "numberOfBytes": "32"
      },
      "t_struct(Counter)5869_storage": {
        "encoding": "inplace",
        "label": "struct Counters.Counter",
        "members": [
          {
            "astId": 5868,
            "contract": "contracts/KeykoZKPSBT_v2.sol:KeykoZKPSBT_v2",
            "label": "_value",
            "offset": 0,
            "slot": "0",
            "type": "t_uint256"
          }
        ],
        "numberOfBytes": "32"
      },
      "t_struct(EncryptedData)8575_storage": {
        "encoding": "inplace",
        "label": "struct EncryptedData",
        "members": [
          {
            "astId": 8568,
            "contract": "contracts/KeykoZKPSBT_v2.sol:KeykoZKPSBT_v2",
            "label": "iv",
            "offset": 0,
            "slot": "0",
            "type": "t_bytes_storage"
          },
          {
            "astId": 8570,
            "contract": "contracts/KeykoZKPSBT_v2.sol:KeykoZKPSBT_v2",
            "label": "ephemPublicKey",
            "offset": 0,
            "slot": "1",
            "type": "t_bytes_storage"
          },
          {
            "astId": 8572,
            "contract": "contracts/KeykoZKPSBT_v2.sol:KeykoZKPSBT_v2",
            "label": "cipherText",
            "offset": 0,
            "slot": "2",
            "type": "t_bytes_storage"
          },
          {
            "astId": 8574,
            "contract": "contracts/KeykoZKPSBT_v2.sol:KeykoZKPSBT_v2",
            "label": "mac",
            "offset": 0,
            "slot": "3",
            "type": "t_bytes_storage"
          }
        ],
        "numberOfBytes": "128"
      },
      "t_struct(SBTData)8581_storage": {
        "encoding": "inplace",
        "label": "struct SBTData",
        "members": [
          {
            "astId": 8577,
            "contract": "contracts/KeykoZKPSBT_v2.sol:KeykoZKPSBT_v2",
            "label": "hashData",
            "offset": 0,
            "slot": "0",
            "type": "t_bytes_storage"
          },
          {
            "astId": 8580,
            "contract": "contracts/KeykoZKPSBT_v2.sol:KeykoZKPSBT_v2",
            "label": "encryptedExpiryDate",
            "offset": 0,
            "slot": "1",
            "type": "t_struct(EncryptedData)8575_storage"
          }
        ],
        "numberOfBytes": "160"
      },
      "t_uint256": {
        "encoding": "inplace",
        "label": "uint256",
        "numberOfBytes": "32"
      }
    }
  }
}